:100000000C943E000C9448000C9448000C9448005A
:100010000C9448000C9448000C9448000C94480040
:100020000C9448000C9448000C9448000C94480030
:100030000C9448000C9448000C9448000C94480020
:100040000C9448000C9448000C9448000C94480010
:100050000C9448000C9448000C9448000C94480000
:100060000C9448000C9448000C9448000C944800F0
:100070000C9448000C9448000C94480011241FBEB6
:10008000CFEFD8E0DEBFCDBF0E944F000C94B3008D
:100090000C940000880F991F0197F1F708958FEFD6
:1000A00081B984B987B91AB803E010E082E0B82EAC
:1000B00098EEE92E93E0F92EAA24A394D0E0C0E0B4
:1000C000CE01B8010E948B006B01B8B8C701861B36
:1000D000970B0E944A0018B8C6010E944A00219658
:1000E000C83B8BE0D80761F7D0E0C0E0CE01B80193
:1000F0000E948B006B01A8B8C701861B970B0E945A
:100100004A0018B8C6010E944A002196C83B8BE0FD
:10011000D80761F7D3CF97FB072E16F4009407D0CA
:1001200077FD09D00E949F0007FC05D03EF4909512
:1001300081959F4F0895709561957F4F0895AA1BF3
:10014000BB1B51E107C0AA1FBB1FA617B70710F0C2
:10015000A61BB70B881F991F5A95A9F780959095F4
:0A016000BC01CD010895F894FFCF13
:00000001FF
